:020000020000FC
:1000000008E00EBF0FEF0DBF1FEF14B91AB917B9F3
:040010000C948000CC
:1000640081CF9286CCA4A08F808488E0B1C2B0B83E
:02007400B800D2
:10010000E4E6F0E048E35FEF405250404BF162F12B
:1001100010E015B9E42FF52FD52F11E0D123D2959A
:10012000DD0FDD0FDD0F1FE7D12B469510E8412BCA
:100130004D235595DF2F1FE0D123D295E695E69507
:10014000E695E695F595F595F595F59510EFE12B86
:100150001FE0D12BED234E0F5F1F0E94C800FDCF83
:100160001FEF1BB90C94870011E015B9419551950B
:1001700051500C948A0002E012E324E62A95F1F72C
:1001800000001A95D1F700000A95B1F70000089514
:10019000A5E00E94DC000E94BB000E94E9000E94D2
:1001A000BB000E94F7000E94BB000E9404010E9455
:1001B000BB00AA9571F70895E4E6F0E09EEF98B9C8
:1001C000742F7F70B1E07B0F85917A95E9F78BB939
:1001D0000895E4E6F0E09DEF98B9742F707F729572
:1001E000B1E07B0F85917A95E9F78BB90895E4E644
:1001F000F0E09BEF98B9752F7F70B1E07B0F859190
:100200007A95E9F78BB90895E4E6F0E097EF98B9AD
:10021000752F707F7295B1E07B0F85917A95E9F724
:080220008BB908950C94120142
:00000001FF
