S00A000063312E7372656386
S11300000C945A000C9464000C9464000C946400E6
S11300100C9464000C9464000C9464000C946400CC
S11300200C9464000C9464000C9464000C946400BC
S11300300C9464000C9464000C9464000C946400AC
S11300400C9464000C9464000C9464000C9464009C
S11300500C9464000C9464000C9464000C9464008C
S11300600C9464000C9464000C9464000C9464007C
S11300700C9464000C9464000C9464000C9464006C
S11300800C9464000C9464000C9464000C9464005C
S11300900C9464000C9464000C9464000C9464004C
S11300A00C9464000C9464000C9464000C9464003C
S11300B00C94640011241FBECFEFD8E0DEBFCDBF87
S11300C00E947A000C94B0000C94000010C020EF41
S11300D03FEF309385002093840025E02093810036
S11300E0B09BFECF1092810021E026BB01970097C0
S11300F071F708958FEF84B917B888B910E0C1E09B
S1130100D0E0339902C0C1E0D0E086B18B3711F45E
S1130110C2E0D0E086B18D3711F4C3E0D0E086B1FF
S11301208E3711F415B810E0C130D10531F41F5FDA
S113013015B988EE93E00E946600C230D10559F4E7
S1130140115015B92FEF83ED90E32150804090407A
S1130150E1F700C00000C330D10599F615B9D1CF3D
S1070160F894FFCF3D
S9030000FC
