:100000000C945A000C9477000C9477000C947700B1
:100010000C941C010C9477000C9477000C947700DE
:100020000C9477000C9477000C9477000C94770074
:100030000C9477000C9477000C9421020C947700B8
:100040000C9477000C9477000C9477000C94770054
:100050000C9477000C9477000C9477000C94770044
:100060000C9477000C9477000C9477000C94EE01BC
:100070000C9477000C9477000C9477000C94770024
:100080000C9477000C9477000C9477000C94770014
:100090000C9477000C9477000C9477000C94770004
:1000A0000C9477000C9477000C9477000C947700F4
:1000B0000C94770011241FBECFEFD8E0DEBFCDBF78
:1000C00011E0A0E0B1E0E0E8F6E002C005900D929A
:1000D000AC30B107D9F721E0ACE0B1E001C01D922E
:1000E000A531B207E1F70E9473020C943E030C9411
:1000F000000088EF87B987E088B98FEF84B98AB9A3
:100100001DB88EB91BB886B1817080931201E8E6E4
:10011000F0E080818A608083ECE6F0E08081876097
:100120008083E3E7F0E080818F60808384B5826024
:1001300084BD85B5836085BD89EF87BDEEE6F0E0BF
:10014000808182608083089514C0109280002BE02B
:100150002093810029EF30E03093890020938800BC
:100160001092850010928400B19BFECF22E026BB46
:100170000197009751F708959BB190689BB998E358
:1001800098B9E82FF0E0E050FF4F80818BB96130E3
:1001900049F028F0623049F0633051F0089587EF5C
:1001A00088B908958FEE88B908958FED88B90895BC
:1001B0008BB18F778BB90895CF93DF9300D000D0A8
:1001C000CDB7DEB79C0199232CF068EE73E00E9456
:1001D0001603698333232CF48AE0898331952195B2
:1001E0003109C90164E670E00E941603CB01EAE020
:1001F000F0E0BF010E9416038A83C901BF010E947B
:100200001603282FCB01BF010E9416038B832C837A
:1002100060910C0180910C01E1E0F0E0EC0FFD1F1A
:10022000E80FF11D80810E94BC000F900F900F908D
:100230000F90DF91CF9108951F920F920FB60F92FA
:1002400011242F933F934F935F936F937F938F93DB
:100250009F93AF93BF93CF93EF93FF93C6B1C170BA
:1002600081E090E00E94A40086B120910D01869566
:10027000869591E089278170211190E0892369F1A9
:1002800080911201C81709F453C086B18270C11160
:1002900014C051F480910E0190910F010A96909331
:1002A0000F0180930E0109C080910E0190910F0102
:1002B0000A9790930F0180930E0180910E01909107
:1002C0000F019C01220F331F220F331F820F931F38
:1002D00090931401809313012BC080911201C817D1
:1002E00039F186B18270C11114C051F480910E01B0
:1002F00090910F01019690930F0180930E0109C018
:1003000080910E0190910F01019790930F018093BE
:100310000E0180910E0190910F019C01220F331F5D
:10032000220F331F820F931F9093140180931301A8
:1003300080910D0120910D0191E0813009F090E054
:1003400081E0223009F080E0892BB1F080910E012C
:1003500090910F010A9734F089E090E090930F019B
:1003600080930E0180910E0190910F01992324F446
:1003700010920F0110920E01C093120180910E0194
:1003800090910F018031974244F010920F0110922A
:100390000E01109211011092100180910E019091A6
:1003A0000F0189319C4F44F410920F0110920E01FD
:1003B0001092110110921001FF91EF91CF91BF9116
:1003C000AF919F918F917F916F915F914F913F91ED
:1003D0002F910F900FBE0F901F9018951F920F92A4
:1003E0000FB60F9211248F9360990EC010920D01D9
:1003F00010920F0110920E01109211011092100133
:100400001092140110921301619907C081E080934A
:100410000D0110920F0110920E01629907C082E047
:1004200080930D0110920F0110920E01639903C089
:1004300083E080930D018F910F900FBE0F901F905E
:1004400018951F920F920FB60F9211242F933F937E
:100450004F935F936F937F938F939F93AF93BF93CC
:10046000EF93FF9380910E0190910F010E94DC00A9
:1004700080910C01833019F410920C0105C0809119
:100480000C018F5F80930C01FF91EF91BF91AF91B1
:100490009F918F917F916F915F914F913F912F919C
:1004A0000F900FBE0F901F9018958330910599F013
:1004B00034F48130910549F0029751F00895843069
:1004C000910561F0059769F0089581E085B9089577
:1004D00082E085B9089584E085B9089588E085B9FA
:1004E000089515B808950E9479007894C0E0D0E08E
:1004F00080910D018823C1F045C080911001909139
:10050000110101969093110180931001C430D1051F
:1005100011F0219602C0C1E0D0E0CE010E94550248
:1005200082E090E00E94A400209113013091140118
:10053000809110019091110182179307F4F217C076
:100540008091100190911101019790931101809376
:100550001001C230D10514F0219702C0C4E0D0E0F0
:10056000CE010E94550282E090E00E94A4002091FA
:1005700013013091140180911001909111012817FD
:100580003907F4F280910D018130F9F420910E01C8
:1005900030910F018AE090E07C01E21AF30ACE016B
:1005A0000E945502C430D10511F0219602C0C1E06D
:1005B000D0E010E005C082E090E00E94A4001F5F40
:1005C000812F90E08E159F05B4F380910D0182304C
:1005D000F9F420910E0130910F018AE090E07C0146
:1005E000E21AF30ACE010E945502C230D10514F07E
:1005F000219702C0C4E0D0E010E005C082E090E0A6
:100600000E94A4001F5F812F90E08E159F05B4F318
:1006100080910D01833009F06BCF10920F01109281
:100620000E0185E090E00E94550262CF97FB072EF5
:1006300016F4009407D077FD09D00E942A0307FC26
:1006400005D03EF4909581959F4F089570956195E2
:100650007F4F0895AA1BBB1B51E107C0AA1FBB1FF8
:10066000A617B70710F0A61BB70B881F991F5A953E
:10067000A9F780959095BC01CD010895F894FFCF1E
:0C068000C0F9A4B0999282F88090BF00ED
:00000001FF
