S00F000050726F6A656B742E7372656336
S11300000C945A000C9477000C9477000C947700AD
S11300100C9404010C9477000C9477000C947700F2
S11300200C9477000C9477000C9477000C94770070
S11300300C9477000C9477000C94DF010C947700F7
S11300400C9477000C9477000C9477000C94770050
S11300500C9477000C9477000C9477000C94770040
S11300600C9477000C9477000C9477000C94AC01FA
S11300700C9477000C9477000C9477000C94770020
S11300800C9477000C9477000C9477000C94770010
S11300900C9477000C9477000C9477000C94770000
S11300A00C9477000C9477000C9477000C947700F0
S11300B00C94770011241FBECFEFD8E0DEBFCDBF74
S11300C011E0A0E0B1E0E8E0F6E002C005900D9296
S11300D0AC30B107D9F721E0ACE0B1E001C01D922A
S11300E0A531B207E1F70E9431020C9402030C948B
S11300F0000088EF87B987E088B98FEF84B98AB99F
S11301001DB88EB91BB886B1817080931201E8E6E0
S1130110F0E080818A608083ECE6F0E08081876093
S11301208083E3E7F0E080818F60808384B5826020
S113013084BD85B5836085BD89EF87BDEEE6F0E0BB
S113014080818260808308959BB190689BB998E315
S113015098B9E82FF0E0E050FF4F80818BB961300F
S113016049F028F0623049F0633051F0089587EF88
S113017088B908958FEE88B908958FED88B90895E8
S11301808BB18F778BB90895CF93DF9300D000D0D4
S1130190CDB7DEB79C0199232CF068EE73E00E9482
S11301A0DA02698333232CF48AE08983319521951B
S11301B03109C90164E670E00E94DA02CB01EAE089
S11301C0F0E0BF010E94DA028A83C901BF010E94E4
S11301D0DA02282FCB01BF010E94DA028B832C8321
S11301E060910C0180910C01E1E0F0E0EC0FFD1F47
S11301F0E80FF11D80810E94A4000F900F900F90D2
S11302000F90DF91CF9108951F920F920FB60F9226
S113021011242F933F934F935F938F939F9326B112
S113022021708FE891E00197F1F700C0000086B1DA
S113023030910D018695869591E089278170311161
S113024090E0892369F180911201281709F453C0C1
S113025086B18270211114C051F480910E019091E5
S11302600F010A9690930F0180930E0109C08091AB
S11302700E0190910F010A9790930F0180930E0144
S113028080910E0190910F01AC01440F551F440F52
S1130290551F840F951F90931401809313012BC055
S11302A080911201281739F186B18270211114C08E
S11302B051F480910E0190910F01019690930F01DA
S11302C080930E0109C080910E0190910F01019756
S11302D090930F0180930E0180910E0190910F0174
S11302E0AC01440F551F440F551F840F951F909365
S11302F014018093130180910D0130910D0191E05F
S1130300813009F090E081E0323009F080E0892BFF
S1130310B1F080910E0190910F010A9734F089E0B9
S113032090E090930F0180930E0180910E019091C3
S11303300F01992324F410920F0110920E012093BF
S113034012019F918F915F914F913F912F910F9047
S11303500FBE0F901F9018951F920F920FB60F9219
S113036011248F9360990EC010920D0110920F0109
S113037010920E01109211011092100110921401AA
S113038010921301619907C081E080930D011092CE
S11303900F0110920E01629907C082E080930D0153
S11303A010920F0110920E01639903C083E08093B1
S11303B00D018F910F900FBE0F901F9018951F92F3
S11303C00F920FB60F9211242F933F934F935F9385
S11303D06F937F938F939F93AF93BF93EF93FF9309
S11303E080910E0190910F010E94C40080910C0134
S11303F0833019F410920C0105C080910C018F5FB9
S113040080930C01FF91EF91BF91AF919F918F91D8
S11304107F916F915F914F913F912F910F900FBEFC
S11304200F901F9018958330910599F034F4813022
S1130430910549F0029751F008958430910561F0D7
S1130440059769F0089581E085B9089582E085B93A
S1130450089584E085B9089588E085B9089515B8AC
S113046008950E9479007894C0E0D0E080910D0155
S11304708823D1F049C08091100190911101019617
S11304809093110180931001C430D10511F021968D
S113049002C0C1E0D0E0CE010E9413028FE39FE1CD
S11304A00197F1F700C0000020911301309114016D
S11304B0809110019091110182179307E4F219C001
S11304C080911001909111010197909311018093F3
S11304D01001C230D10514F0219702C0C4E0D0E06D
S11304E0CE010E941302EFE3FFE13197F1F700C060
S11304F0000020911301309114018091100190911A
S1130500110128173907E4F280910D01813001F5BA
S113051080910E0190910F010AE010E0081B190B65
S1130520CE010E941302C430D10511F0219602C0FD
S1130530C1E0D0E080E007C0EFE3FFE13197F1F7DD
S113054000C000008F5F282F30E020173107A4F38C
S113055080910D01823001F580910E0190910F017F
S11305600AE010E0081B190BCE010E941302C230EE
S1130570D10514F0219702C0C4E0D0E080E007C0A8
S1130580EFE3FFE13197F1F700C000008F5F282F00
S113059030E020173107A4F380910D01833009F076
S11305A065CF10920F0110920E0185E090E00E9439
S11305B013025CCF97FB072E16F4009407D077FD47
S11305C009D00E94EE0207FC05D03EF49095819577
S11305D09F4F0895709561957F4F0895AA1BBB1B8B
S11305E051E107C0AA1FBB1FA617B70710F0A61B2F
S11305F0B70B881F991F5A95A9F780959095BC0150
S10B0600CD010895F894FFCF29
S10F0608C0F9A4B0999282F88090BF0061
S9030000FC
