S01E000050726F6A656B745F737A796D656B5F6B727A796368752E73726563B6
S11300000C945A000C9477000C9477000C947700AD
S11300100C942D010C9477000C9477000C94BD0083
S11300200C9477000C9477000C9477000C94770070
S11300300C9477000C9477000C9477000C94770060
S11300400C9477000C9477000C9477000C94770050
S11300500C9477000C9477000C9477000C94770040
S11300600C9477000C9477000C9477000C94770030
S11300700C9477000C9477000C9477000C94770020
S11300800C9477000C9477000C9477000C94770010
S11300900C9477000C9477000C9477000C94770000
S11300A00C9477000C9477000C9477000C947700F0
S11300B00C94770011241FBECFEFD8E0DEBFCDBF74
S11300C011E0A0E0B1E0E2E3F3E002C005900D929C
S11300D0AA30B107D9F721E0AAE0B1E001C01D922E
S11300E0A331B207E1F70E9465010C9497010C94C7
S11300F0000017B88FEF88B984B98AB91BB886B1E4
S1130100817080931201E8E6F0E080818260808350
S1130110ECE6F0E0808187608083E0EBF0E08081B2
S113012082608083E1EBF0E08081866080838DE3F0
S11301308093B300E0E7F0E08081826080830895DB
S11301409FEF95B9E82FF0E0E050FF4F80818BB925
S1130150613049F028F0623049F0633051F008957D
S11301608EEF85B908958DEF85B908958BEF85B924
S1130170089585B1877F85B908951F920F920FB6B0
S11301800F9211242F933F934F935F936F937F9319
S11301908F939F93AF93BF93EF93FF9380910D0140
S11301A090E068EE73E00E946F01EEE0F1E060839E
S11301B080910D0199E2899F912D11248DEC9295E6
S11301C09F70918320910D01289F212D1124269544
S11301D026952695289F912D11249695969596956A
S11301E0990F392F330F330F930F291B228320913B
S11301F00D01289F812D1124869586958695880F5B
S1130200982F990F990F890F281B238360910A0156
S1130210E0910A01F0E0E25FFE4F80810E94A000BD
S113022080910A01833019F410920A0105C080916B
S11302300A018F5F80930A01FF91EF91BF91AF9103
S11302409F918F917F916F915F914F913F912F91EA
S11302500F900FBE0F901F9018951F920F920FB61C
S11302600F9211242F933F938F939F9386B18170A4
S113027092E49A95F1F700C0909112018917D1F098
S113028096B19270811116C059F420910B013091EE
S11302900C012F5F3F4F30930C0120930B010AC0D8
S11302A020910B0130910C012150310930930C0144
S11302B020930B01809312019F918F913F912F9175
S11302C00F900FBE0F901F9018950E94790078949C
S11302D080910B0190910C0180930D01F9CF97FB54
S11302E0072E16F4009407D077FD09D00E948301ED
S11302F007FC05D03EF4909581959F4F0895709525
S113030061957F4F0895AA1BBB1B51E107C0AA1F2B
S1130310BB1FA617B70710F0A61BB70B881F991FA2
S11303205A95A9F780959095BC01CD010895F8944C
S1050330FFCFF9
S10D0332C0F9A4B0999282F88090FB
S9030000FC
