S01E000050726F6A656B745F737A796D656B5F6B727A796368752E73726563B6
S11300000C945A000C9477000C9477000C947700AD
S11300100C94C4010C9477000C9477000C943B016D
S11300200C9477000C9477000C9477000C94770070
S11300300C9477000C9477000C9477000C94770060
S11300400C9477000C9477000C9477000C94770050
S11300500C9477000C9477000C9477000C94770040
S11300600C9477000C9477000C9477000C94770030
S11300700C9477000C9477000C9477000C94770020
S11300800C9477000C9477000C9477000C94770010
S11300900C9477000C9477000C9477000C94770000
S11300A00C9477000C9477000C9477000C947700F0
S11300B00C94770011241FBECFEFD8E0DEBFCDBF74
S11300C011E0A0E0B1E0EAE7F7E002C005900D928C
S11300D0AA31B107D9F721E0AAE1B1E001C01D922C
S11300E0A233B207E1F70E944F020C94BB030C94B5
S11300F0000014C0109280002BE02093810029EFAF
S113010030E030938900209388001092850010928B
S11301108400B19BFECF22E026BB0197009751F7E4
S11301200895F999FECF92BD81BD60BD8FB38460FF
S11301308FBB8FB382608FBB0895F999FECF92BDB8
S113014081BD8FB381608FBB80B50895EF92FF921C
S11301500F931F93CF93DF937C018B01D42FC0E0C7
S11301600DC08C2F90E0FC01EE0FFF1FE00FF11F7C
S113017060818E0D9F1D0E949100CF5FCD1788F383
S1130180DF91CF911F910F91FF90EF900895CF923F
S1130190DF92EF92FF920F931F93CF93DF936C0143
S11301A07B01D42FC0E010C08C2F90E08C01000F95
S11301B0111F0E0D1F1D8C0D9D1D0E949D0090E0B2
S11301C0F80191838083CF5FCD1770F3DF91CF91D6
S11301D01F910F91FF90EF90DF90CF90089517B883
S11301E08FEF88B984B98AB91BB886B181708093BE
S11301F03101E8E6F0E0808182608083ECE6F0E0A3
S1130200808185608083E0EBF0E080818260808380
S1130210E1EBF0E08081866080838DE38093B3001E
S1130220E0E7F0E080818260808346E050E062E0B5
S113023071E08FE090E00E94C70008959FEF95B9A8
S1130240E82FF0E0E25FFE4F80818BB9613049F026
S113025028F0623049F0633051F008958EEF85B98B
S113026008958DEF85B908958BEF85B9089585B10B
S1130270877F85B908951F920F920FB60F921124AC
S11302802F933F934F935F936F937F938F939F939A
S1130290AF93BF93EF93FF9380911B01882329F0C1
S11302A080911B01833009F04FC080911D0190E0C3
S11302B068EE73E00E949303EDE2F1E060838091C5
S11302C01D0199E2899F912D11248DEC92959F70C7
S11302D0918320911D01289F212D11242695269577
S11302E02695289F912D1124969596959695990F6C
S11302F0392F330F330F930F291B228320911D01B4
S1130300289F812D1124869586958695880F982F90
S1130310990F990F890F281B238360911E01E09187
S11303201E01F0E0E35DFE4F80810E941E0180917A
S11303301E01833019F410921E0115C080911E0114
S11303408F5F80931E010FC080911B01813021F4C7
S113035015B881E48BB907C080911B01823019F470
S113036015B887E48BB9FF91EF91BF91AF919F913D
S11303708F917F916F915F914F913F912F910F904A
S11303800FBE0F901F9018951F920F920FB60F92E9
S113039011242F933F934F935F936F937F938F9386
S11303A09F93AF93BF93EF93FF9386B18170909126
S11303B031018917D1F096B19270811116C059F4A8
S11303C020911F01309120012F5F3F4F3093200176
S11303D020931F010AC020911F0130912001215058
S11303E031093093200120931F018093310182E071
S11303F090E00E94790080911B018230E9F43299E7
S11304001BC01092200110921F0110921A01109229
S11304101B0110921C0181E08093010180E090E0B7
S113042008C0FC01EE0FFF1FEF5DFE4F118210822A
S1130430019686309105ACF380911B018130F1F473
S113044032991CC01092200110921F0110921A01BF
S113045083E080931B0110921C0181E080930101D1
S113046080E090E008C0FC01EE0FFF1FEF5DFE4F3F
S113047011821082019686309105ACF3FF91EF91C1
S1130480BF91AF919F918F917F916F915F914F91A8
S11304903F912F910F900FBE0F901F9018950E94BF
S11304A0EF00789410921D0180E090E008C0FC01F8
S11304B0EE0FFF1FEF5DFE4F118210820196863012
S11304C09105ACF380911A01082E000C990B209130
S11304D01F01309120018217930709F485C0809190
S11304E01B01882329F080911B01833009F07CC013
S11304F080911A01082E000C990B20911F01309154
S11305002001821793071CF481E0809301018091FC
S11305101A01082E000C990B20911F013091200123
S1130520281739071CF48FEF809301019091000183
S113053080910101981751F180911B01833091F44E
S1130540E0911C01F0E0A0911C01B0E0AA0FBB1FD8
S1130550AF5DBE4F8D919C91EE0FFF1FEE5FFE4F7E
S11305609183808380911C018F5F80931C01809113
S11305700101809300011092200110921F018091CB
S11305801F019091200180931A012EC080911F01B8
S11305909091200180931A01E0911C01F0E0809178
S11305A01F019091200199231CF491958195910943
S11305B0EE0FFF1FEF5DFE4F9183808380911B013F
S11305C0833091F4E0911C01F0E0A0911C01B0E0B3
S11305D0AA0FBB1FAF5DBE4F8D919C91EE0FFF1F05
S11305E0EE5FFE4F91838083E0911C01F0E0EE0FFB
S11305F0FF1FEF5DFE4F808191818436910564F485
S1130600E0911C01F0E0EE0FFF1FEF5DFE4F8081D3
S113061091818D399F4F9CF41092200110921F01FB
S113062080911F019091200180931A01E0911C0197
S1130630F0E0EE0FFF1FEF5DFE4F11821082E0919C
S11306401C01F0E0EE0FFF1FEF5DFE4F80819181F2
S113065080931D0180911C018630B9F513C0C90136
S1130660880F991FFC01EF5DFE4F40815181FC0111
S1130670EE5FFE4F808191814817590751F42F5F37
S11306803F4F02C020E030E02630310544F3C1E0A2
S113069001C0C0E0C13079F446E062E071E08FE06F
S11306A090E00E94A60081E080931B0180911C01D0
S11306B08F5F80931C01C11108C082E080931B01ED
S11306C080911C018F5F80931C0180911B018130FC
S11306D009F0F8CE80911A01082E000C990B209194
S11306E01F01309120018217930709F4EBCE109279
S11306F0200110921F0110921A0110921B011092F6
S11307001C0181E08093010180E090E008C0FC01BD
S1130710EE0FFF1FEF5DFE4F1182108201968630AF
S11307209105ACF3CFCE97FB072E16F4009407D0B7
S113073077FD09D00E94A70307FC05D03EF49095ED
S113074081959F4F0895709561957F4F0895AA1BD9
S1130750BB1B51E107C0AA1FBB1FA617B70710F0A8
S1130760A61BB70B881F991F5A95A9F780959095DA
S10D0770BC01CD010895F894FFCFF9
S113077A0101010002000300040005000600C0F99B
S10D078AA4B0999282F880904147D0
S9030000FC
